{"abi":[{"type":"receive","stateMutability":"payable"},{"type":"function","name":"acceptOrderAsSeller","inputs":[{"name":"_index","type":"uint256","internalType":"uint256"}],"outputs":[],"stateMutability":"nonpayable"},{"type":"function","name":"approvePaymentAsBuyer","inputs":[{"name":"_index","type":"uint256","internalType":"uint256"}],"outputs":[],"stateMutability":"nonpayable"},{"type":"function","name":"buyerOrders","inputs":[{"name":"","type":"address","internalType":"address"},{"name":"","type":"uint256","internalType":"uint256"}],"outputs":[{"name":"","type":"uint256","internalType":"uint256"}],"stateMutability":"view"},{"type":"function","name":"cancelListing","inputs":[{"name":"_index","type":"uint256","internalType":"uint256"}],"outputs":[],"stateMutability":"nonpayable"},{"type":"function","name":"cancelOrder","inputs":[{"name":"_index","type":"uint256","internalType":"uint256"}],"outputs":[],"stateMutability":"nonpayable"},{"type":"function","name":"disputeOrder","inputs":[{"name":"_index","type":"uint256","internalType":"uint256"}],"outputs":[],"stateMutability":"nonpayable"},{"type":"function","name":"fulfillOrder","inputs":[{"name":"_index","type":"uint256","internalType":"uint256"}],"outputs":[],"stateMutability":"nonpayable"},{"type":"function","name":"getListing","inputs":[{"name":"_index","type":"uint256","internalType":"uint256"}],"outputs":[{"name":"","type":"tuple","internalType":"struct Trader.Listing","components":[{"name":"index","type":"uint256","internalType":"uint256"},{"name":"world_id","type":"string","internalType":"string"},{"name":"seller","type":"address","internalType":"address"},{"name":"asset","type":"address","internalType":"address"},{"name":"amount","type":"uint256","internalType":"uint256"},{"name":"price","type":"uint256","internalType":"uint256"},{"name":"isCancelled","type":"bool","internalType":"bool"},{"name":"isFulfilled","type":"bool","internalType":"bool"},{"name":"isActive","type":"bool","internalType":"bool"}]}],"stateMutability":"view"},{"type":"function","name":"getListingsBySeller","inputs":[{"name":"_seller","type":"address","internalType":"address"}],"outputs":[{"name":"","type":"tuple[]","internalType":"struct Trader.Listing[]","components":[{"name":"index","type":"uint256","internalType":"uint256"},{"name":"world_id","type":"string","internalType":"string"},{"name":"seller","type":"address","internalType":"address"},{"name":"asset","type":"address","internalType":"address"},{"name":"amount","type":"uint256","internalType":"uint256"},{"name":"price","type":"uint256","internalType":"uint256"},{"name":"isCancelled","type":"bool","internalType":"bool"},{"name":"isFulfilled","type":"bool","internalType":"bool"},{"name":"isActive","type":"bool","internalType":"bool"}]}],"stateMutability":"view"},{"type":"function","name":"getOrder","inputs":[{"name":"_index","type":"uint256","internalType":"uint256"}],"outputs":[{"name":"","type":"tuple","internalType":"struct Trader.Order","components":[{"name":"index","type":"uint256","internalType":"uint256"},{"name":"listingIndex","type":"uint256","internalType":"uint256"},{"name":"buyer","type":"address","internalType":"address"},{"name":"asset","type":"address","internalType":"address"},{"name":"amount","type":"uint256","internalType":"uint256"},{"name":"price","type":"uint256","internalType":"uint256"},{"name":"timestamp","type":"uint256","internalType":"uint256"},{"name":"isFulfilled","type":"bool","internalType":"bool"},{"name":"isBuyerPaymentApproved","type":"bool","internalType":"bool"},{"name":"isSellerAccepted","type":"bool","internalType":"bool"},{"name":"isCancelled","type":"bool","internalType":"bool"},{"name":"isDisputed","type":"bool","internalType":"bool"}]}],"stateMutability":"view"},{"type":"function","name":"getOrdersByBuyer","inputs":[{"name":"_buyer","type":"address","internalType":"address"}],"outputs":[{"name":"","type":"uint256[]","internalType":"uint256[]"}],"stateMutability":"view"},{"type":"function","name":"getOrdersBySeller","inputs":[{"name":"_seller","type":"address","internalType":"address"}],"outputs":[{"name":"","type":"uint256[]","internalType":"uint256[]"}],"stateMutability":"view"},{"type":"function","name":"initiateOrder","inputs":[{"name":"_listingIndex","type":"uint256","internalType":"uint256"},{"name":"_asset","type":"address","internalType":"address"},{"name":"_amount","type":"uint256","internalType":"uint256"}],"outputs":[{"name":"","type":"uint256","internalType":"uint256"}],"stateMutability":"nonpayable"},{"type":"function","name":"list","inputs":[{"name":"_world_id","type":"string","internalType":"string"},{"name":"_asset","type":"address","internalType":"address"},{"name":"_amount","type":"uint256","internalType":"uint256"},{"name":"_price","type":"uint256","internalType":"uint256"}],"outputs":[{"name":"","type":"tuple","internalType":"struct Trader.Listing","components":[{"name":"index","type":"uint256","internalType":"uint256"},{"name":"world_id","type":"string","internalType":"string"},{"name":"seller","type":"address","internalType":"address"},{"name":"asset","type":"address","internalType":"address"},{"name":"amount","type":"uint256","internalType":"uint256"},{"name":"price","type":"uint256","internalType":"uint256"},{"name":"isCancelled","type":"bool","internalType":"bool"},{"name":"isFulfilled","type":"bool","internalType":"bool"},{"name":"isActive","type":"bool","internalType":"bool"}]}],"stateMutability":"payable"},{"type":"function","name":"listings","inputs":[{"name":"","type":"uint256","internalType":"uint256"}],"outputs":[{"name":"index","type":"uint256","internalType":"uint256"},{"name":"world_id","type":"string","internalType":"string"},{"name":"seller","type":"address","internalType":"address"},{"name":"asset","type":"address","internalType":"address"},{"name":"amount","type":"uint256","internalType":"uint256"},{"name":"price","type":"uint256","internalType":"uint256"},{"name":"isCancelled","type":"bool","internalType":"bool"},{"name":"isFulfilled","type":"bool","internalType":"bool"},{"name":"isActive","type":"bool","internalType":"bool"}],"stateMutability":"view"},{"type":"function","name":"orders","inputs":[{"name":"","type":"uint256","internalType":"uint256"}],"outputs":[{"name":"index","type":"uint256","internalType":"uint256"},{"name":"listingIndex","type":"uint256","internalType":"uint256"},{"name":"buyer","type":"address","internalType":"address"},{"name":"asset","type":"address","internalType":"address"},{"name":"amount","type":"uint256","internalType":"uint256"},{"name":"price","type":"uint256","internalType":"uint256"},{"name":"timestamp","type":"uint256","internalType":"uint256"},{"name":"isFulfilled","type":"bool","internalType":"bool"},{"name":"isBuyerPaymentApproved","type":"bool","internalType":"bool"},{"name":"isSellerAccepted","type":"bool","internalType":"bool"},{"name":"isCancelled","type":"bool","internalType":"bool"},{"name":"isDisputed","type":"bool","internalType":"bool"}],"stateMutability":"view"},{"type":"function","name":"sellerListings","inputs":[{"name":"","type":"address","internalType":"address"},{"name":"","type":"uint256","internalType":"uint256"}],"outputs":[{"name":"index","type":"uint256","internalType":"uint256"},{"name":"world_id","type":"string","internalType":"string"},{"name":"seller","type":"address","internalType":"address"},{"name":"asset","type":"address","internalType":"address"},{"name":"amount","type":"uint256","internalType":"uint256"},{"name":"price","type":"uint256","internalType":"uint256"},{"name":"isCancelled","type":"bool","internalType":"bool"},{"name":"isFulfilled","type":"bool","internalType":"bool"},{"name":"isActive","type":"bool","internalType":"bool"}],"stateMutability":"view"},{"type":"function","name":"sellerOrders","inputs":[{"name":"","type":"address","internalType":"address"},{"name":"","type":"uint256","internalType":"uint256"}],"outputs":[{"name":"","type":"uint256","internalType":"uint256"}],"stateMutability":"view"}],"bytecode":{"object":"0x608060405234801561001057600080fd5b506120c3806100206000396000f3fe60806040526004361061010d5760003560e01c80636311e83011610095578063a9f48c1511610064578063a9f48c1514610363578063cb06911314610383578063d09ef241146103a3578063d8cba251146103d0578063de74e57b146103fd57600080fd5b80636311e830146102745780637a202cc114610294578063a09970b2146102b4578063a85c38ef146102d457600080fd5b8063305a67a8116100dc578063305a67a8146101b95780633a875a43146101d95780634500cb601461020657806345cb450514610234578063514fcac71461025457600080fd5b8063054564f014610119578063107a274a1461015757806315edcec3146101845780632c9ddeac146101a657600080fd5b3661011457005b600080fd5b34801561012557600080fd5b506101396101343660046119de565b61041d565b60405161014e99989796959493929190611a4e565b60405180910390f35b34801561016357600080fd5b50610177610172366004611ab1565b610528565b60405161014e9190611b6c565b34801561019057600080fd5b506101a461019f366004611ab1565b610662565b005b6101776101b4366004611b9c565b610700565b3480156101c557600080fd5b506101a46101d4366004611ab1565b610bab565b3480156101e557600080fd5b506101f96101f4366004611c6d565b610ca0565b60405161014e9190611c88565b34801561021257600080fd5b506102266102213660046119de565b610d0c565b60405190815260200161014e565b34801561024057600080fd5b5061022661024f3660046119de565b610d3d565b34801561026057600080fd5b506101a461026f366004611ab1565b610d59565b34801561028057600080fd5b506101a461028f366004611ab1565b610e0b565b3480156102a057600080fd5b506101f96102af366004611c6d565b610fdf565b3480156102c057600080fd5b506101a46102cf366004611ab1565b611049565b3480156102e057600080fd5b506102f46102ef366004611ab1565b61116c565b604080519c8d5260208d019b909b526001600160a01b03998a169a8c019a909a529790961660608a0152608089019490945260a088019290925260c0870152151560e086015215156101008501521515610120840152151561014083015215156101608201526101800161014e565b34801561036f57600080fd5b5061022661037e366004611ccc565b6111fa565b34801561038f57600080fd5b506101a461039e366004611ab1565b6115a4565b3480156103af57600080fd5b506103c36103be366004611ab1565b611672565b60405161014e9190611d01565b3480156103dc57600080fd5b506103f06103eb366004611c6d565b6117ad565b60405161014e9190611dbb565b34801561040957600080fd5b50610139610418366004611ab1565b611929565b6001602052816000526040600020818154811061043957600080fd5b90600052602060002090600702016000915091505080600001549080600101805461046390611e1f565b80601f016020809104026020016040519081016040528092919081815260200182805461048f90611e1f565b80156104dc5780601f106104b1576101008083540402835291602001916104dc565b820191906000526020600020905b8154815290600101906020018083116104bf57829003601f168201915b505050600284015460038501546004860154600587015460069097015495966001600160a01b0393841696929093169450925060ff808216916101008104821691620100009091041689565b61053061195e565b6000828154811061054357610543611e59565b9060005260206000209060070201604051806101200160405290816000820154815260200160018201805461057790611e1f565b80601f01602080910402602001604051908101604052809291908181526020018280546105a390611e1f565b80156105f05780601f106105c5576101008083540402835291602001916105f0565b820191906000526020600020905b8154815290600101906020018083116105d357829003601f168201915b505050918352505060028201546001600160a01b0390811660208301526003830154166040820152600482015460608201526005820154608082015260069091015460ff808216151560a084015261010082048116151560c08401526201000090910416151560e09091015292915050565b60006002828154811061067757610677611e59565b90600052602060002090600802019050336001600160a01b031660008260010154815481106106a8576106a8611e59565b60009182526020909120600260079092020101546001600160a01b0316146106eb5760405162461bcd60e51b81526004016106e290611e6f565b60405180910390fd5b600701805462ff000019166201000017905550565b61070861195e565b600083116107585760405162461bcd60e51b815260206004820152601d60248201527f416d6f756e74206d7573742062652067726561746572207468616e203000000060448201526064016106e2565b600082116107a85760405162461bcd60e51b815260206004820152601c60248201527f5072696365206d7573742062652067726561746572207468616e20300000000060448201526064016106e2565b6001600160a01b038416156108e3576040516370a0823160e01b815233600482015283906001600160a01b038616906370a0823190602401602060405180830381865afa1580156107fd573d6000803e3d6000fd5b505050506040513d601f19601f820116820180604052508101906108219190611eb3565b10156108665760405162461bcd60e51b8152602060048201526014602482015273496e73756666696369656e742062616c616e636560601b60448201526064016106e2565b6040516323b872dd60e01b8152336004820152306024820152604481018490526001600160a01b038516906323b872dd906064016020604051808303816000875af11580156108b9573d6000803e3d6000fd5b505050506040513d601f19601f820116820180604052508101906108dd9190611ecc565b5061096f565b604051600090309085908381818185875af1925050503d8060008114610925576040519150601f19603f3d011682016040523d82523d6000602084013e61092a565b606091505b505090508061096d5760405162461bcd60e51b815260206004820152600f60248201526e151c985b9cd9995c8819985a5b1959608a1b60448201526064016106e2565b505b60408051610120810182526000805482526020808301898152338486018190526001600160a01b038a1660608601526080850189905260a0850188905260c0850184905260e0850184905261010085018490528352600180835294832080548087018255908452919092208351600790920201908155905191928392908201906109f99082611f3f565b5060408201516002820180546001600160a01b039283166001600160a01b03199182161790915560608401516003840180549190931691161790556080820151600482015560a0820151600582015560c08201516006909101805460e0840151610100948501511515620100000262ff00001991151590950261ff00199415159490941661ffff1990921691909117929092179190911691909117905560008054600181018255908052815160079091027f290decd9548b62a8d60345a988386fc84ba6bc95484008f6362f93160ef3e563810191825560208301518392917f290decd9548b62a8d60345a988386fc84ba6bc95484008f6362f93160ef3e5640190610b059082611f3f565b5060408201516002820180546001600160a01b03199081166001600160a01b0393841617909155606084015160038401805490921692169190911790556080820151600482015560a0820151600582015560c08201516006909101805460e08401516101009485015161ffff1990921693151561ff001916939093179215159093029190911762ff00001916620100009215159290920291909117905595945050505050565b6000808281548110610bbf57610bbf611e59565b906000526020600020906007020190508060060160029054906101000a900460ff1615610c245760405162461bcd60e51b8152602060048201526013602482015272131a5cdd1a5b99c81a5cc8191a5cdc1d5d1959606a1b60448201526064016106e2565b60028101546001600160a01b03163314610c8f5760405162461bcd60e51b815260206004820152602660248201527f596f7520617265206e6f74207468652073656c6c6572206f662074686973206c604482015265697374696e6760d01b60648201526084016106e2565b600601805460ff1916600117905550565b6001600160a01b038116600090815260036020908152604091829020805483518184028101840190945280845260609392830182828015610d0057602002820191906000526020600020905b815481526020019060010190808311610cec575b50505050509050919050565b60036020528160005260406000208181548110610d2857600080fd5b90600052602060002001600091509150505481565b60046020528160005260406000208181548110610d2857600080fd5b600060028281548110610d6e57610d6e611e59565b600091825260209091206002600890920201908101549091506001600160a01b0316331480610dd85750336001600160a01b03166000826001015481548110610db957610db9611e59565b60009182526020909120600260079092020101546001600160a01b0316145b610df45760405162461bcd60e51b81526004016106e290611fff565b600701805463ff0000001916630100000017905550565b600060028281548110610e2057610e20611e59565b90600052602060002090600802019050600080826001015481548110610e4857610e48611e59565b600091825260209091206002600790920201908101549091506001600160a01b03163314610e885760405162461bcd60e51b81526004016106e290611e6f565b60038201546001600160a01b031615610f24576003820154600283015460048085015460405163a9059cbb60e01b81526001600160a01b0393841692810192909252602482015291169063a9059cbb906044016020604051808303816000875af1158015610efa573d6000803e3d6000fd5b505050506040513d601f19601f82011682018060405250810190610f1e9190611ecc565b50610fc1565b600282015460048301546040516000926001600160a01b031691908381818185875af1925050503d8060008114610f77576040519150601f19603f3d011682016040523d82523d6000602084013e610f7c565b606091505b5050905080610fbf5760405162461bcd60e51b815260206004820152600f60248201526e151c985b9cd9995c8819985a5b1959608a1b60448201526064016106e2565b505b600601805462ff000019169055600701805460ff1916600117905550565b6001600160a01b038116600090815260046020908152604091829020805483518184028101840190945280845260609392830182828015610d005760200282019190600052602060002090815481526020019060010190808311610cec5750505050509050919050565b60006002828154811061105e5761105e611e59565b906000526020600020906008020190508060070160029054906101000a900460ff1661109c5760405162461bcd60e51b81526004016106e29061204c565b60028101546001600160a01b03163314806110f25750336001600160a01b031660008260010154815481106110d3576110d3611e59565b60009182526020909120600260079092020101546001600160a01b0316145b61110e5760405162461bcd60e51b81526004016106e290611fff565b6001600082600101548154811061112757611127611e59565b6000918252602090912060066007928302909101018054921515620100000262ff0000199093169290921790915501805464ff00000000191664010000000017905550565b6002818154811061117c57600080fd5b60009182526020909120600890910201805460018201546002830154600384015460048501546005860154600687015460079097015495975093956001600160a01b039384169592909316939092909160ff80821691610100810482169162010000820481169163010000008104821691640100000000909104168c565b600080821161124b5760405162461bcd60e51b815260206004820152601d60248201527f416d6f756e74206d7573742062652067726561746572207468616e203000000060448201526064016106e2565b60006040518061018001604052806002805490508152602001868152602001336001600160a01b03168152602001856001600160a01b03168152602001848152602001600087815481106112a1576112a1611e59565b906000526020600020906007020160050154815260200142815260200160001515815260200160001515815260200160001515815260200160001515815260200160001515815250905060016000868154811061130057611300611e59565b600091825260208083206006600790930201919091018054931515620100000262ff00001990941693909317909255338152600382526040812083518154600181018355918352928220019190915580546004919081908890811061136757611367611e59565b6000918252602080832060026007909302018201546001600160a01b0390811685528482019590955260409384018320865181546001818101845592865283862001558254908101835591909252845160089091027f405787fa12a823e0f2b7631cc41b3ba8828b3321ca811111fa75cd3aa3bb5ace8101829055918501517f405787fa12a823e0f2b7631cc41b3ba8828b3321ca811111fa75cd3aa3bb5acf830155918401517f405787fa12a823e0f2b7631cc41b3ba8828b3321ca811111fa75cd3aa3bb5ad0820180549185166001600160a01b031992831617905560608501517f405787fa12a823e0f2b7631cc41b3ba8828b3321ca811111fa75cd3aa3bb5ad1830180549190951691161790925560808301517f405787fa12a823e0f2b7631cc41b3ba8828b3321ca811111fa75cd3aa3bb5ad283015560a08301517f405787fa12a823e0f2b7631cc41b3ba8828b3321ca811111fa75cd3aa3bb5ad383015560c08301517f405787fa12a823e0f2b7631cc41b3ba8828b3321ca811111fa75cd3aa3bb5ad483015560e08301517f405787fa12a823e0f2b7631cc41b3ba8828b3321ca811111fa75cd3aa3bb5ad59092018054610100858101516101208701516101408801516101609098015115156401000000000264ff000000001998151563010000000263ff0000001992151562010000029290921663ffff00001993151590940261ff00199815159890981661ffff199095169490941796909617161793909317939093169190911790915590509392505050565b6000600282815481106115b9576115b9611e59565b906000526020600020906008020190508060070160029054906101000a900460ff166115f75760405162461bcd60e51b81526004016106e29061204c565b60028101546001600160a01b0316331461165f5760405162461bcd60e51b815260206004820152602360248201527f596f7520617265206e6f7420746865206275796572206f662074686973206f726044820152623232b960e91b60648201526084016106e2565b600701805461ff00191661010017905550565b6040805161018081018252600080825260208201819052918101829052606081018290526080810182905260a0810182905260c0810182905260e08101829052610100810182905261012081018290526101408101829052610160810191909152600282815481106116e6576116e6611e59565b6000918252602091829020604080516101808101825260089093029091018054835260018101549383019390935260028301546001600160a01b0390811691830191909152600383015416606082015260048201546080820152600582015460a0820152600682015460c082015260079091015460ff808216151560e0840152610100808304821615159084015262010000820481161515610120840152630100000082048116151561014084015264010000000090910416151561016082015292915050565b6001600160a01b0381166000908152600160209081526040808320805482518185028101850190935280835260609492939192909184015b8282101561191e5783829060005260206000209060070201604051806101200160405290816000820154815260200160018201805461182390611e1f565b80601f016020809104026020016040519081016040528092919081815260200182805461184f90611e1f565b801561189c5780601f106118715761010080835404028352916020019161189c565b820191906000526020600020905b81548152906001019060200180831161187f57829003601f168201915b505050918352505060028201546001600160a01b0390811660208084019190915260038401549091166040830152600483015460608301526005830154608083015260069092015460ff808216151560a084015261010082048116151560c08401526201000090910416151560e09091015290825260019290920191016117e5565b505050509050919050565b6000818154811061193957600080fd5b6000918252602090912060079091020180546001820180549193509061046390611e1f565b604051806101200160405280600081526020016060815260200160006001600160a01b0316815260200160006001600160a01b0316815260200160008152602001600081526020016000151581526020016000151581526020016000151581525090565b80356001600160a01b03811681146119d957600080fd5b919050565b600080604083850312156119f157600080fd5b6119fa836119c2565b946020939093013593505050565b6000815180845260005b81811015611a2e57602081850181015186830182015201611a12565b506000602082860101526020601f19601f83011685010191505092915050565b60006101208b8352806020840152611a688184018c611a08565b6001600160a01b039a8b16604085015298909916606083015250608081019590955260a085019390935290151560c0840152151560e08301521515610100909101529392505050565b600060208284031215611ac357600080fd5b5035919050565b6000610120825184526020830151816020860152611aea82860182611a08565b91505060018060a01b0360408401511660408501526060830151611b1960608601826001600160a01b03169052565b506080830151608085015260a083015160a085015260c0830151611b4160c086018215159052565b5060e0830151611b5560e086018215159052565b506101009283015115159390920192909252919050565b602081526000611b7f6020830184611aca565b9392505050565b634e487b7160e01b600052604160045260246000fd5b60008060008060808587031215611bb257600080fd5b843567ffffffffffffffff80821115611bca57600080fd5b818701915087601f830112611bde57600080fd5b813581811115611bf057611bf0611b86565b604051601f8201601f19908116603f01168101908382118183101715611c1857611c18611b86565b816040528281528a6020848701011115611c3157600080fd5b826020860160208301376000602084830101528098505050505050611c58602086016119c2565b93969395505050506040820135916060013590565b600060208284031215611c7f57600080fd5b611b7f826119c2565b6020808252825182820181905260009190848201906040850190845b81811015611cc057835183529284019291840191600101611ca4565b50909695505050505050565b600080600060608486031215611ce157600080fd5b83359250611cf1602085016119c2565b9150604084013590509250925092565b60006101808201905082518252602083015160208301526040830151611d3260408401826001600160a01b03169052565b506060830151611d4d60608401826001600160a01b03169052565b506080830151608083015260a083015160a083015260c083015160c083015260e0830151611d7f60e084018215159052565b50610100838101511515908301526101208084015115159083015261014080840151151590830152610160928301511515929091019190915290565b600060208083016020845280855180835260408601915060408160051b87010192506020870160005b82811015611e1257603f19888603018452611e00858351611aca565b94509285019290850190600101611de4565b5092979650505050505050565b600181811c90821680611e3357607f821691505b602082108103611e5357634e487b7160e01b600052602260045260246000fd5b50919050565b634e487b7160e01b600052603260045260246000fd5b60208082526024908201527f596f7520617265206e6f74207468652073656c6c6572206f662074686973206f604082015263393232b960e11b606082015260800190565b600060208284031215611ec557600080fd5b5051919050565b600060208284031215611ede57600080fd5b81518015158114611b7f57600080fd5b601f821115611f3a576000816000526020600020601f850160051c81016020861015611f175750805b601f850160051c820191505b81811015611f3657828155600101611f23565b5050505b505050565b815167ffffffffffffffff811115611f5957611f59611b86565b611f6d81611f678454611e1f565b84611eee565b602080601f831160018114611fa25760008415611f8a5750858301515b600019600386901b1c1916600185901b178555611f36565b600085815260208120601f198616915b82811015611fd157888601518255948401946001909101908401611fb2565b5085821015611fef5787850151600019600388901b60f8161c191681555b5050505050600190811b01905550565b6020808252602d908201527f596f7520617265206e6f7420746865206275796572206f722073656c6c65722060408201526c37b3103a3434b99037b93232b960991b606082015260800190565b60208082526021908201527f53656c6c657220686173206e6f7420616363657074656420746865206f7264656040820152603960f91b60608201526080019056fea26469706673582212201bff7fb39ae589b2c1f8d5eae120ea4188c5520dc7ea9e45ec75b949bc8d70c264736f6c63430008170033","linkReferences":{}},"methodIdentifiers":{"acceptOrderAsSeller(uint256)":"15edcec3","approvePaymentAsBuyer(uint256)":"cb069113","buyerOrders(address,uint256)":"4500cb60","cancelListing(uint256)":"305a67a8","cancelOrder(uint256)":"514fcac7","disputeOrder(uint256)":"a09970b2","fulfillOrder(uint256)":"6311e830","getListing(uint256)":"107a274a","getListingsBySeller(address)":"d8cba251","getOrder(uint256)":"d09ef241","getOrdersByBuyer(address)":"3a875a43","getOrdersBySeller(address)":"7a202cc1","initiateOrder(uint256,address,uint256)":"a9f48c15","list(string,address,uint256,uint256)":"2c9ddeac","listings(uint256)":"de74e57b","orders(uint256)":"a85c38ef","sellerListings(address,uint256)":"054564f0","sellerOrders(address,uint256)":"45cb4505"},"id":21}